:020000040800F2
:100000004009002035020008B9330008B133000868
:10001000B5330008BD140008E534000800000000F6
:10002000000000000000000000000000C1330008D4
:10003000C114000800000000BD330008C5330008EB
:100040004F0200084F0200084F0200084F0200084C
:100050004F0200084F0200084F0200084F0200083C
:100060004F0200084F0200084F0200084F0200082C
:100070004F0200084F0200084F0200084F0200081C
:100080004F0200084F020008F91300084F02000851
:100090004F0200084F0200084F0200084F020008FC
:1000A0004F0200084F0200084F0200084F020008EC
:1000B0004F0200084F0200084F0200084F020008DC
:1000C0004F0200084F0200084F0200084F020008CC
:1000D0004F020008D93400084F0200084F02000800
:1000E0004F0200084F0200084F02000800F002F81B
:1000F00000F090F80AA090E8000C82448344AAF132
:100100000107DA4501D100F085F8AFF2090EBAE82F
:100110000F0013F0010F18BFFB1A43F0010318473B
:100120003450000054500000103A24BF78C878C101
:10013000FAD8520724BF30C830C144BF04680C60ED
:10014000704700000023002400250026103A28BF35
:1001500078C1FBD8520728BF30C148BF0B60704739
:100160006E2900F08181702900F0C382662904F0B5
:100170005987652904F05687672904F05387612958
:1001800004F0528703681B0A28BF41F080016929E7
:1001900000F02E81642900F02B81752900F0288160
:1001A0006F2900F05182782900F08F82E92900F050
:1001B000EB81E42900F0E881F52900F0E581EF29E1
:1001C00000F04E82F82900F08E820368DB0928BF18
:1001D00041F08001632900F08F87732900F0948734
:1001E000E32900F09F87F32900F0A48700207047DF
:1001F0001FB500F0F5FF04000020002104F0FCFE14
:10020000401C60600020002104F0E0FEE0601FBDA3
:1002100010B510BD00F0B6FF1146FFF7E9FF03F07F
:1002200005FC01F093F803B4FFF7F2FF03BC01F003
:10023000DBF800000948804709480047FEE7FEE771
:10024000FEE7FEE7FEE7FEE7FEE7FEE7FEE7FEE786
:1002500004480549054A064B70470000C9330008A9
:10026000ED00000840030020400900204005002068
:10027000400500201CB50C46064B7B4469460090A7
:10028000204600F00AF904460020694600F018F9FB
:1002900020461CBD4302000010B5431C02E010F8CC
:1002A000011B71B18107FAD14FF0013202C88C1ADB
:1002B0008C4314EAC211F9D0C01A0A0603D0C01E3A
:1002C00010BDC01A10BD0A0401D0801E10BD090265
:1002D000FCD0401E10BD4FF0000200B513469446FE
:1002E0009646203922BFA0E80C50A0E80C50B1F18E
:1002F0002001BFF4F7AF090728BFA0E80C5048BFA2
:100300000CC05DF804EB890028BF40F8042B08BF3F
:10031000704748BF20F8022B11F0804F18BF00F83B
:10032000012B704770477047704770B50446856968
:100330000068C10601D5302600E02026C00707D09E
:1003400070BDD4E9012130469047206A401C2062EC
:100350006D1EF6D570BD70B5044685690078C0077E
:1003600007D170BDD4E9012120209047206A401CAC
:1003700020626D1EF6D570BD09684A0501D540B2F0
:100380007047C905FCD500B2704709684A0501D518
:10039000C0B27047C905FCD580B2704770B50C4635
:1003A0000546012A05D02878800600D5EA69002391
:1003B00002E0012305E05B1C934202D2E05C0028CE
:1003C000F9D1A869E618C01AA861286A18442862F9
:1003D0002846FFF7AAFF04E0D5E9012114F8010B34
:1003E0009047B442F8D32846FFF7B5FF70BD000030
:1003F0002DE9F0410646002410687529314616A5FE
:1004000010D0FFF7B9FF002802DA404213A507E039
:1004100031688A0701D512A502E0490704D511A564
:10042000012401E0FFF7B1FF00210A2206F12407B1
:1004300009E0B0FBF2FCB0FBF2F302FB1C00303031
:1004400078541846491C0028F3D123462A463046E2
:10045000BDE8F04100F061BA000000002D0000008E
:100460002B0000002000000011680268006A53059C
:1004700001D508700AE0D30501D5088006E013060F
:1004800003D5C217C1E9000200E0086001207047EF
:1004900001694A1C02610878704700B58FB0CDE948
:1004A00001310021059105497944CDE90310114638
:1004B000684600F029F90FB000BD0000E5FFFFFF1E
:1004C0000A6802F8010B0A60704700002DE9FF5F1F
:1004D00015468A460446DFF8AC80F8440027D8E980
:1004E00000103E46CDE9001010E03AF816106A46BA
:1004F00002A800F023FE411C07D02178890603D50D
:10050000E269391891420DD80744761C207880069C
:1005100002D5E069B84205DDAE42E6DB3AF81600E6
:100520000028E2D1A069C01BA0612046FFF7FDFEB4
:10053000D8E90010CDE90010002017E03AF81810B3
:100540006A4602A800F0FAFDB0F1FF3F81460BD0E9
:1005500000250DF1080B05E0D4E901211BF8050089
:1005600090476D1C4D45F7D308F10100B04280461D
:10057000E4DB206A384420622046FFF7ECFEBDE849
:10058000FF9F00004E4B00002DE9F0418046D21D38
:1005900022F007020025D2E90002F52915A614D0A1
:1005A000011E72F1000106DA0023D0EB030063EBB9
:1005B000020211A608E0D8F800108B0701D50FA69B
:1005C00002E0490701D50EA601251146002408F1D5
:1005D000240704E000F05CF930323A55641C50EA1C
:1005E0000102F7D12B46324621464046BDE8F04194
:1005F00000F093B9000000002D0000002B00000067
:100600002000000030B4002100F1240408E002F0D2
:100610000705D208303542EA4372DB086554491CAD
:1006200052EA0305F3D10468002310A2250708D578
:1006300004F020040C4304D0C46901230CA2641EFE
:10064000C46130BC00F069B910B504462146106899
:10065000FFF79BFE02462046BDE810400023D1E78D
:10066000D21D22F00701D1E90023CBE700000000F2
:1006700030000000F0B40D460188090502D5214C78
:100680007C4402E01F4C7C440E34002100F124061F
:1006900008E002F00F071209E75D42EA03721B0946
:1006A0007754491C52EA0307F3D10278002312075A
:1006B00004D5702D06D009B1022311342246F0BCB6
:1006C00000F02BB901231034F8E770B504460D464D
:1006D00021461068FFF759FE024629462046BDE82C
:1006E00070400023C6E7D21D22F00703D3E90023A0
:1006F000C0E70368126843F0200303600823C36166
:100700000023B7E7B04900002DE9F05F89460446B1
:100710004FF0000ADFF874B1FB44C0F820A0204677
:10072000E1688847002874D0252806D0D4E9012143
:100730009047206A401C2062F1E700265F46204671
:10074000E16888472028054607DB312D05D2781956
:1007500010F8200C08B10643F1E7B00701D526F0E8
:100760000406C4F81CA00027C4F818A02A2D09D03C
:10077000284604F023FC38B304EB8708303DC8F862
:10078000185019E059F8041B204604EB87029161C8
:10079000E1688847012F054618D1E069002820DA72
:1007A00026F020061DE0D8F8180000EB800005EBCD
:1007B00040003038C8F818002046E16888470546F0
:1007C00004F0FCFB0028EED1012F0AD02E2D08D119
:1007D0002046E16888477F1C0546022F46F0200628
:1007E000C4DBA069002803DA404246F00106A0619C
:1007F000F00701D026F010066C2D0BD0682D09D023
:100800004C2D39D06A2D35D0742D35D07A2D33D07A
:1008100016E038E0E1682F4620468847B842054692
:1008200009D16C2F26D04FF48060E1680643204642
:100830008847054604E06C2F1AD04FF480700643B9
:100840000DB3A5F14100192802D8203546F4006601
:100850004A462946204626604E46FFF781FC80B175
:1008600001280BD0F61D26F0070000F1080956E715
:100870004020E4E78020D8E70020D6E706F104090D
:100880004DE7284652E7206ABDE8F09F4049000046
:1008900030B5B0F10A0271F100034FEA900E4EEA52
:1008A000817EB0EB0E0061EB91014FEA101E4EEA23
:1008B000017E10EB0E0041EB11114FEA102E4EEAB3
:1008C000016E10EB0E0041EB11214FEA104E4EEA83
:1008D000014E10EB0E0041EB1141401841F10001B7
:1008E0004FEAD00040EA41704FEAD1014FEA81045B
:1008F00044EA907410EB800544EB01046D1944EB5D
:100900000404521BA3414FF0000348BF0A3200D534
:1009100030BD401C41F1000130BD2DE9F0470D46CE
:1009200099469246044600F124080168880604D5D9
:10093000E06921F01001216000E00120A84201DD02
:10094000471B00E00027A1697A1902EB0900081A89
:10095000A0612078C00602D42046FFF7E6FC0026FE
:1009600008E0D4E901211AF806009047206A401CEB
:10097000761C20624E45F4DB2078C0060AD520465E
:10098000FFF7D3FC06E0D4E9012130209047206A2C
:10099000401C2062381EA7F10107F4DC07E0D4E90F
:1009A000012118F805009047206A401C2062281E8B
:1009B000A5F10105F3DC2046FFF7CDFC2078000609
:1009C00002D50220BDE8F0870120FBE72DE9FF4FAB
:1009D0000C461E464FF0FF378BB0D2E90001DDF820
:1009E00060800A908A46C1F30A5505B93D46002148
:1009F00008464FF00000BAF1000F00F4400005DA9D
:100A000000EB80004FF4400101EA50004FEA90599A
:100A1000B9F1010F00DDB9460A9850EA4A000ED03C
:100A200044F61050A5F2FF3545432F14B8F1000FDE
:100A30001ED07542291E1EDDC9F100021CE0B8F16E
:100A4000010F4FF0000001D0302103E0F24305E038
:100A50002154401CB042FBDB3046002200212154CF
:100A60000B99C1F80880C1E900200FB0BDE8F08FF4
:100A7000BD1B6D1CDEE74A4600DA694206A800F09D
:100A8000F3FB06AB93E8070003AB83E8070050468F
:100A90000A9903F0B7FE8DE80700A0F500501F3853
:100AA00000900398002D0ADD42F21F014A460844D7
:100AB000002303A90390684604F020F909E0A0F59B
:100AC00000504A461F38002303A90390684604F0EB
:100AD0002AF98DE807000004000C03D04FF0FF3026
:100AE000410800E01046B8F1000F03D00022009248
:100AF00015461EE0751E05D4FFF7CAFE303262555A
:100B00006D1EF9D5B3460122084302D000227F1C96
:100B100004E02078302801D100227F1E002A0997A6
:100B200084D01DE0112D07DAFFF7B2FE3032625596
:100B30006D1C50EA0102F5D1084302D00098C8B1FB
:100B40000EE00021681E05E0235C625C63542254C1
:100B5000401E491C8142F7DBAB46A81B401E099092
:100B6000002004F80B000B98099AC0F80880C0E92F
:100B7000002B7AE711264FF0000857E72DE9F04FD8
:100B800088460446D21D22F0070191B0D1E9000148
:100B9000CDE90A0104F0FEF902460B98C00F01D01E
:100BA0002D2007E02068810701D52B2002E02021BD
:100BB00001EAC000032A099001D0072A05DB034699
:100BC0004146204600F010FB0BE12078800601D55D
:100BD000E06900E00620B8F1650F814606D0B8F163
:100BE000660F18D0B8F1670F70D131E00020B9F16D
:100BF000110F009001DB112301E009F101030AAAA2
:100C000001A90CA8FFF7E2FEDDE90C70002609F14E
:100C10000105834647E001204B4600904FF0004716
:100C20000AAA01A90CA8FFF7D1FEDDE90DB00C99C5
:100C30005D46002610B909F101000D18B9EB050059
:100C400003D4C0F1FF3609F10105A5EB09002BE043
:100C5000B9F1010F01DA4FF001090020B9F1110FCC
:100C60000090484601DD112300E003460AAA01A9CD
:100C70000CA8FFF7ABFEDDE90C704D46002683465D
:100C8000207800070AD4AB4500DA5D4601A8012DA3
:100C900004DD411911F8011C302907D04F4502DA53
:100CA00017F1040F04DA012082460FE06D1EEEE713
:100CB000002F02DCED1B3E4403E0781CA84200DD5F
:100CC0007D1CB81B00F1010A4FF000472078000797
:100CD00003D4AA4501DB4FF0FF3A0021B7F1004FE2
:100CE0000DF143088DF8431024D002202B23002F50
:100CF00001DA7F422D230A21021EA0F1010000DC4F
:100D00005FB197FBF1FC97FBF1F201FB1C7C1746EE
:100D10000CF1300C08F801CDEEE7A8F101000370EA
:100D20002188090501D5452100E06521A0F10108D0
:100D300000F8011C09980FA9A1EB0807FF1D00B1DD
:100D40000120411901EBEA70A1693844081A401EDC
:100D5000A0612078C00602D42046FFF7E6FA099881
:100D600028B1D4E901219047206A401C20622078F4
:100D7000C00622D52046FFF7D8FA1EE0002E04DB7D
:100D8000B34502DD01A8805D00E03020D4E90121F7
:100D90009047206A401C2062761CAAF101005FEA9D
:100DA000000A0AD100F01CFAC0680168405CD4E96E
:100DB00001219047206A401C2062281EA5F10105F0
:100DC000DCDC07E0D4E9012118F8010B9047206A28
:100DD000401C2062381EA7F10107F3DC2046FFF714
:100DE000BAFA032011B041E62DE9F04F04460D4652
:100DF000D21D22F0070089B0D0E900974846394655
:100E000004F0C8F80246F80F01D02D2307E020684F
:100E1000810701D52B2302E0202101EAC0038DF8D0
:100E200020300BB1012000E00020032A824601D0CF
:100E3000072A04DB2946204600F0D6F93FE1207856
:100E4000800601D40D2500E0E569C7F30A560D2D93
:100E500049DA00214FEA175B08464FF00000002FE7
:100E600000F4400007DA00EB80004FF4400100EB93
:100E7000D07001EA60008115012901DD4FF0FF31DA
:100E800000224FEA850CBCF1180F06D31346ACF1D3
:100E900018004FF08052C24003E04FF4801323FA51
:100EA0000CF30CF10C0CBCF1200F04D3ACF1200CB2
:100EB00009FA0CF001E007FA0CF000294FF00048A5
:100EC00001DD18B90FE00ED140450CD319EB020932
:100ED0005F4121B9404502D19F4329EA0209BBEB9A
:100EE000175F00D0761C2088000502D57B48784427
:100EF00002E07A487844193808AA302302F80A3008
:100F0000037C0AF10101002E0AF1020A53546A46D9
:100F100002DC4FF0300101E04FF031014FF00108E9
:100F20008DF8001002D0A6F2FF3603E059EA47011F
:100F300000D06B4E002D02DC2178090704D54FF05C
:100F400002082E218DF80110C44600210BE0C7F3E2
:100F500003433F01C35C491C6D1E02F8083005299C
:100F600008F1010801DA002DF1DC00210CE000EBB2
:100F70001973491C1B786D1E082902F808304FEAC6
:100F8000091908F1010801DA002DF0DC21688B064F
:100F900002D516E0A8F10108E04505DD02EB0803E3
:100FA00013F8013C302BF5D0B8F1000F09DD02EB4E
:100FB000080313F8013C2E2B03D1090701D4A8F133
:100FC0000108002D05DD3E2102F808106D1E08F114
:100FD0000108407C002E02F8080008F1010804DA3C
:100FE0002D20764202F8080002E02B2002F80800CB
:100FF0000A214FF47A70864208F101080BDB96FB58
:10100000F0F3303302F8083096FBF0F308F10108F2
:1010100000FB136601E0642E0CDB642096FBF0F30A
:10102000303302F8083096FBF0F308F1010800FBBA
:10103000136601E00A2E06DB96FBF1F0303002F871
:10104000080008F1010896FBF1F001FB1060303058
:1010500002F80800A16908F1010808EB050202EB9B
:101060000A00081AA0612078C00602D42046FFF7C3
:101070005CF9216A08AE01EB0A00206204E0D4E9C1
:10108000012116F8010B9047BAF1010AF7D2207836
:10109000C00602D52046FFF748F96E4609E016F86B
:1010A000010B3E280FD0D4E901219047206A401C53
:1010B0002062B8F10108F2D22046FFF74CF909B0DE
:1010C0000320BDE8F08F206A2844206203E0D4E9C1
:1010D0000121302090476D1EEBD3F8E78E410000D0
:1010E00002FCFFFF10B5436913B1AFF3008001E0CC
:1010F000FFF754F9012010BD127800F124010A70A5
:1011000000224A700122EDE711684FF0FF32E9E753
:1011100010B5436913B1AFF3008001E0FFF7D6F9D2
:10112000012010BD128800F1240182840022C284B3
:101130000122EDE711684FF0FF32E9E72DE9F041B8
:1011400016460C46054600F043F8036893F8010183
:10115000012807D0FF2C12D8185D80B101202C7017
:10116000BDE8F081D3F807013246214603F20713A8
:10117000C7182846BC46BDE8F041002360474FF041
:10118000FF30EDE7754600F0EBF8AE460500694626
:10119000534620F00700854618B020B5FFF758F8F1
:1011A000BDE820404FF000064FF000074FF0000868
:1011B0004FF0000BAC46ACE8C009ACE8C009ACE8A5
:1011C000C009ACE8C00921F007018D467047000056
:1011D00010B500F005F8001D10BD00BF1D3E000059
:1011E00000487047300000202DE9F0411F460446BA
:1011F00003260168072A01F4006004DB08B116A584
:1012000005E016A503E008B115A500E015A521F03D
:1012100010002060A069C01EA0610FB1401EA06137
:101220002046FFF782F84FB1D4E9012138469047B4
:10123000206A401C2062C01C206206E0206AFAE797
:10124000D4E9012115F8010B9047761EF8D220460B
:10125000FFF781F8BDE8F0814E414E006E616E00EF
:10126000494E4600696E66002DE9F04781461646F4
:101270008AB0354878440DC88DE80D00324878446E
:10128000801C03AC0DC884E80D0041F69B30084477
:10129000372190FBF1F290FBF1F5A5F1800501FB00
:1012A00012041B3C02D56442012000E00020DFF85C
:1012B00098A080460027FA44AAF1BE0A0EE0E00793
:1012C0000AD03246684607EB470101230AEB810149
:1012D00003F029FD8DE8070064107F1C002CEED17F
:1012E000194F7F44AE3F19E0E80715D007EB041013
:1012F0000DF1180A90E80E008AE80E00C068F0426E
:1013000001D1981908903246012306A903A803F0D9
:101310000AFD03AB83E807006D10641C002DE3D1C8
:101320004FF0010332466946B8F1000F03A802D01E
:1013300003F0E4FC01E003F0F6FCC9E90001C9F8A0
:1013400008200AB0BDE8F087983E000010B50446BA
:10135000AFF300802046BDE81040FEF764BF0000F8
:1013600000487047100000204FF0013C50F8042B5B
:1013700051F8043B9A4221D1A2EB0C03934313EAA8
:10138000CC1317D150F8042B51F8043B9A4215D1D5
:10139000A2EB0C03934313EACC130BD150F8042BAC
:1013A00051F8043B9A4209D1A2EB0C03934313EA90
:1013B000CC13DBD04FF00000704700BFD01A01BA49
:1013C000B1FA81F101F0180122FA01F0CB40DBB251
:1013D000C0B2C01AC1F120012CFA01F3D11A914315
:1013E00011EAC311E6D1704701491820ABBEFEE7F0
:1013F000260002007047000040F29C00C2F200008C
:1014000000F074BAB0B582B00446002001902168A3
:101410008A68D2074FD1886840F00100886040F2A6
:101420000C00C2F2000000684DF68361C4F21B316B
:10143000A0FB0101880C01900198A0B1019801382E
:101440000190019878B1019801380190019850B14C
:10145000019801380190019828B101980138019054
:1014600001980028EAD100F039FE21688968C9078F
:101470001CD1054603E000BF8068C0071AD100F008
:101480002DFE411B20680329F6D38168C907F3D1DB
:10149000A06A40F01000A062E06A40F00100E06243
:1014A000002084F82400012002B0B0BD002002B06A
:1014B000B0BD00BF002002B0B0BD0000FEE70000DC
:1014C0007047000070B542F20C060446C4F20206F2
:1014D00000F004FE3168C90718D13068800644BFA7
:1014E000202030603068C00607D43069C00704D1BE
:1014F000306840075CBF002070BD3068C00623D450
:101500000020316849072BD434E000BF002C47D0BD
:101510000546601C0ED13068C007DED03068C007B9
:101520001CBF30685FEAC070D7D03068C007F2D106
:10153000D3E700BF00F0D2FD401BA04230D8306896
:10154000C007F7D1C9E700BF40F21830C2F200006F
:10155000C16941F00201C16110203168490709D514
:1015600040F21831C2F20001CA6940F0040042F0B2
:101570000102CA613169C90702D13060012070BD22
:1015800040F21831C2F20001CA6942F00402CA6195
:10159000316921F0010131613060012070BD00BF6F
:1015A000032070BD2DE9F04140F29408C2F200081A
:1015B00040F2CC0498F8001040F2CC15C2F20004BE
:1015C000C2F2000562784FF6FF7329704B404AF271
:1015D000010182F0800281EA5306DF076A70A87079
:1015E00008BF5E0881EA5603F70708BF730881EA5F
:1015F0005307DE0708BF5F0881EA5703FE0708BFED
:101600007B0881EA5307DE0708BF5F0881EA5703BA
:10161000FE0708BF7B0881EA5307DE0708BF5F08A3
:1016200081EA5703FE0708BF7B085A4081EA52034C
:10163000D70708BF530881EA5302DF0708BF5A08DB
:1016400081EA5203D70708BF530881EA5302DF0734
:1016500008BF5A0881EA5203D70708BF530881EA36
:101660005302DF0708BF5A0881EA5203D70708BFB1
:10167000530881EA5302DF0708BF5A08504081EA45
:101680005002C30708BF420881EA5200D30708BFCF
:10169000500881EA5002C30708BF420881EA52009D
:1016A000D30708BF500881EA5002C30708BF4208A9
:1016B00081EA5200D30708BF500881EA5002C307ED
:1016C00008BF420881EA5200D10708BF500840F223
:1016D000CC26E870000AC2F200062871304629467E
:1016E00005224FF0FF3301F025FD0020C8F802006D
:1016F00020464FF48071FEF7EEFD28464FF48071CE
:10170000FEF7E9FD304621464FF48072BDE8F04116
:1017100001F026B97047000010B581B00022009298
:1017200090F82420012A03D10221084601B010BDFF
:101730004B680122062B80F8242017D8D0F800C06F
:1017400003EB83035A1F1F23DCF834E003FA02F48F
:101750000B682EEA040403FA02F22243CCF8342088
:10176000092B03EB430219D936E000BFD0F800C0C3
:101770000C2B03EB83021DD8233A1F23DCF830E047
:1017800003FA02F40B682EEA040403FA02F222437D
:10179000CCF83020092B03EB43021DD8DCF81030C5
:1017A000072489689440A34391401943CCF8101052
:1017B000002130E0413A1F23DCF82CE003FA02F468
:1017C0000B682EEA040403FA02F22243CCF82C2020
:1017D000092B03EB4302E1D9DCF80CE01E3A0724A5
:1017E000896894402EEA0404914023F001022143C9
:1017F000102ACCF80C100DD142F20841C4F20101BC
:10180000A1F1080294450DD0816A41F02001816266
:10181000012100E00021002280F82420084601B0C8
:1018200010BD00BF0A68120230D40A68102B42F4BF
:1018300000020A602CD140F20C01C2F200010968DA
:101840004DF68362C4F21B32A1FB0212910C01EB34
:101850008101490000910099E1B10099013900919D
:101860000099C9B10099013900910099B1B100996D
:1018700001390091009999B10099013900910099BD
:1018800000294FF00001E8D1C5E700BF0021C2E701
:101890000021C0E70021BEE70021BCE70021BAE734
:1018A0000021B8E710B5006842F20041C4F201011E
:1018B000884218BF10BD40F29404C2F2000404F143
:1018C000080000F00FF842F21071484340F2011195
:1018D000C0F21001A0FB0112801A02EB5000C00AF6
:1018E000E08010BD0068C06C7047000070B5044611
:1018F000006805684668B10627D515F0020124D0B6
:10190000A16AC90603D4A16A41F40071A162816889
:1019100001F46021B1F5602F10D1217B71B94168CC
:1019200021F020014160A06A20F48070A062A06ACA
:10193000C00403D4A06A40F00100A0622046FFF773
:10194000B1FF20686FF012010160310633D515F048
:10195000040130D0A16AC90603D4A16A41F4005140
:10196000A162816801F4E041B1F5E04F10D1416816
:1019700021F080014160A06A20F48050A062A06A3A
:10198000C00511D4A06A40F00100A0620CE000BFC5
:101990004168490508D4816801F46021B1F5602FE0
:1019A00002D1217B0029E2D02046FFF7B3FE206858
:1019B0006FF00C01016070060ED515F0010008BF34
:1019C00070BDA06A40F48030A062204600F0B4F8F8
:1019D00020686FF00101016070BD0000B0B5002803
:1019E00000F0A8800446806A20B121688868C0079A
:1019F0000BD114E00020E06284F82400204600F0BF
:101A00009DF821688868C00709D0886820F0010027
:101A1000886000F063FB21688A68D20726D1A06A3B
:101A2000C0063AD4A06A41F2021290430230A0628A
:101A3000E069D4E9013240EA030C531EB3FA83F3A0
:101A40005D091346B2F5807F18BF2B02207D257BF0
:101A500001284CEA450030D135B3A56A45F0200590
:101A6000A562E56A45F00105E56226E0054602E06B
:101A70008868C007D3D000F031FB401B21680328E1
:101A8000F6D38868C007F3D0A06A40F01000A062C7
:101A9000E06A40F00100E062A06AA06A40F0100035
:101AA000A0620120B0BD00BFD4F818C04EF60005FA
:101AB000CFF6FF7505EB4C352B434D68B2F5807FB3
:101AC00025F4694543EA05034B608B684FF2FD75C9
:101AD000CFF6E17503EA050343EA00038B6001D00A
:101AE000012A07D122690023CFF6F07303EB0252DB
:101AF00001E000BF0022CB6A23F470031A43CA62DC
:101B0000896840F6FE62CFF61F721140814207D10C
:101B10000020E062A16A012262F30101A162B0BD6E
:101B2000A06A40F0100020F00200A062E06A40F0DD
:101B30000100E0620120B0BD7047000080B586B0B2
:101B4000014640F60000C4F20100096800F5E052C9
:101B500091424FF00001CDE9041101D006B080BDE3
:101B600041F21801C4F202010A6842F400720A60EC
:101B70000A6802F400720192019A0A6842F00402B3
:101B80000A60096801F004010191019902210291A2
:101B90000321039102A900F07FF912200121002204
:101BA00000F01EFB122000F007FB06B080BD000015
:101BB00010B5044690F82400012804BF022010BD8F
:101BC000012084F824002046FFF71CFC20B10021EE
:101BD00084F8241010BD00BF42F2044C2068A16AB2
:101BE000C4F2010C40F6017291430CF57F7201F5CD
:101BF00080719042A16237D0A16A21F48011A16264
:101C00004168490504D5A16A012363F30D31A1623E
:101C1000A16A0023C9044FF0000144BFE16A21F02A
:101C20000601E1626FF0020184F82430016041682E
:101C300041F020014160816801F46021B1F5602F1D
:101C400006D190420AD1DCF8001011F4702F05D0B3
:101C5000816841F480118160002010BD816841F4E9
:101C6000A0018160002010BDDCF8001011F4702F7D
:101C7000C2D0A16A41F48011A162DCF800104905CC
:101C8000C1D4C5E7014690F82100022816D10868A2
:101C9000D1E90FC3026822F00E020260026822F04E
:101CA00001020260012000FA03F2CCF8042081F85E
:101CB00021000020002281F8202070470420886342
:101CC0000120002281F820207047000080B590F8A4
:101CD0002110022924D10268116821F00E0111603F
:101CE0002F211368C4F202018A4240F20401C4F2B7
:101CF000020123F00103136016DD3023C4F2020356
:101D00009A421DD04423C4F202039A421CD05823A5
:101D1000C4F202039A421DD14FF4803322E000BF87
:101D200004218163012080BD0823C4F202039A428A
:101D30000ED01C23C4F202039A420BD1102311E0EF
:101D40004FF480730EE000BF4FF480530AE000BFF1
:101D5000012307E001F1680C4FF08073624508BF72
:101D60004FF480130B60012180F82110426B002199
:101D700080F820100AB190470021084680BD00007D
:101D8000B0B5044600F0AAF9054640F20000C2F2E0
:101D900000000078611C18BF044400BF00F09EF9E9
:101DA000401BA042FAD3B0BD42F21001C4F20201BE
:101DB000086840F0800200200A6070472DE9F04F6B
:101DC00081B040F21839C2F20009924699F8182001
:101DD000012A03D1022001B0BDE8F08F8046012026
:101DE00089F818004CF250309B460E46FFF76AFB0C
:101DF000A0BB404642F21007B8F1020F18BF042002
:101E0000C4F20207B8F1010F08BF404645424FF047
:101E100000080024C4F12001C9F81C802AFA04F04B
:101E20000BFA01F13A680843B4F1200158BF2BFACC
:101E300001F042F00101396026F8020B4CF25030FB
:101E4000FFF740FB3968013521F0010248F100013C
:101E50003A6018B9002904F11004DBD0002189F898
:101E6000181001B0BDE8F08F42F20400C4F2020085
:101E7000C16809065CBF0020704740F22311C4F21C
:101E80006751016048F6AB11CCF6EF510160C068B4
:101E9000C0B2C009704700002DE9F04F82B00E6853
:101EA000002E00F0038141F20042C4F2010204233B
:101EB00040F2004E904208BF03234FF6FF7CC4F26D
:101EC000010E009300240123C1F2100C4FF0000A10
:101ED0004FF0000949E000BF012704F00C030F2276
:101EE0009A402BEA020207FA03F34FEA9A051A43D3
:101EF00046F82520D1F804B040F20C455FEACB2229
:101F0000DEF8082054BF22EA080242EA0802C4F2BE
:101F10000105CEF808202A685FEA8B2354BF22EA25
:101F2000080242EA08022A605FEA8B33DEF80420E6
:101F300054BF22EA080242EA08025FEACB33CEF835
:101F40000420DEF800204FF0010354BF22EA08020B
:101F500042EA0802CEF800200E680AF1010A36FAB9
:101F60000AF204F1040400F0A18003FA0AF816EA68
:101F7000080FF1D04E68664512DC122E56D8DFE805
:101F800006F0350B4549555555555555555555553B
:101F90005555554D510000BFD1F80C9046E000BF9B
:101FA0004FF6FF72C1F2210296420FDC0022C1F20D
:101FB000110296421AD00022C1F21202964215D0A6
:101FC0000022C1F22102964210D02FE00022C1F27D
:101FD000220296420AD00022C1F23102964205D076
:101FE0000022C1F23202964220D100BF8A684AB173
:101FF000012A14BFC0F81480C0F810804FF00809FF
:1020000014E000BF4FF0040910E000BFCA6802F1FD
:1020100008090BE04FF0000908E000BFCA6802F1B0
:10202000040903E0CA6802F10C0900BF2246064613
:10203000BAF1080F24BF203A043637680F259540BF
:1020400027EA050509FA02F22A433260CA79D20664
:102050007FF582AF41F21803C4F202031A68AEF5AD
:102060007E7642F001021A601A6802F001020192C3
:10207000019A2AF0030256F802B040F60002C4F2B8
:102080000102904210D040F60042C4F20102904298
:102090003FF422AF41F20002C4F20102009F9042DD
:1020A00008BF022719E700BF002716E702B0BDE806
:1020B000F08F00008068084018BF012070470000C2
:1020C000C26802EA0103914341EA0341016170479A
:1020D000002A08BF090401617047000040F238304F
:1020E000C2F200000068704740F2000040F2383150
:1020F000C2F20000C2F2000100780A6810440860D1
:102100007047000080B542F20000C4F2020001688E
:1021100041F010010160032000F08EF80F2000F064
:1021200005F800F027F8002080BD000070B540F2EF
:102130000006C2F2000640F20C013278C2F2000141
:102140004FF47A730968B3FBF2F20446B1FBF2F183
:10215000084600F0EFFB0F2C4FF0010508D838B906
:102160004FF0FF3021460022002500F039F874605E
:10217000284670BD82B041F21800C4F20200016826
:10218000022241F001010160016801F001010191A9
:102190000199416841F080514160406800F08050F1
:1021A000009000980420C4F20100016862F31A61F3
:1021B000016002B070470000002848BF7047C1B2FC
:1021C00000F01F00012202FA00F04EF20012CEF2DF
:1021D000000242EAD10121F00301086070470000CB
:1021E00010B54EF60C5CCEF2000CDCF80030C3F3F8
:1021F000022E8EF00704042C28BF0424BEF1030332
:102200004FF0FF3E0EFA04F438BF0023A14399407B
:102210000EFA03F39A43114300F00F0200F16043FA
:102220000901043A03F564436244002848BF02F1FF
:102230000C03197010BD00004EF60C51CEF20001D7
:102240000A684FF6FF031A4060F30A2242F08060EA
:1022500040F0FD70086070472DE9F04182B00446FF
:10226000007841F21C06C007C4F202064AD030686A
:1022700010F0805808D1306840F0805030603068ED
:1022800000F080500190019847F20007C4F2000767
:102290003868C00512D4386840F480703860FFF7A1
:1022A0001DFF05463868C00508D4FFF717FF401B1F
:1022B0006428F7D9032002B0BDE8F081706810F4FB
:1022C000407012D0616801F4407188420DD070688E
:1022D00040F24042C4F24222012320F440711360D4
:1022E0000023C007136071602AD17068616820F410
:1022F00040700843B8F1000F706003D1306820F0DF
:10230000805030602068810707D556F8181CA268F5
:1023100021F44041114346F8181CC00604D40020A3
:1023200002B0BDE8F08100BF56F8180CE16820F457
:102330008000084346F8180C002002B0BDE8F08188
:10234000FFF7CCFE054641F2883700BF7068800772
:10235000CBD4FFF7C3FE401BB8424FF00300F5D9C2
:10236000EBE700002DE9F04381B0002800F0858004
:1023700042F20008C4F202080446D8F800000D46F4
:1023800000F0070088420CD2D8F8000020F00700C7
:102390002843C8F80000D8F8000000F00700A84261
:1023A0006BD1206841F204098107C4F2020917D5F4
:1023B000410705D5D9F8001041F4E061C9F80010D3
:1023C000010705D5D9F8001041F46051C9F8001093
:1023D000D9F80010A26821F0F0011143C9F80010EB
:1023E000C00741D1D8F8000000F00700A8420CD97E
:1023F000D8F8000020F007002843C8F80000D8F8FB
:10240000000000F00700A84237D12068410707D537
:10241000D9F80010E26821F4E0611143C9F8001016
:10242000000708D5D9F80000216920F4605040EA7F
:10243000C100C9F80000D9F8002002F00C000828FB
:1024400041F20020C0F27A0050D145F24213C2F3AB
:102450008341C0F60003595CD2033BD440F6001020
:10246000C0F23D00484341E0606802280AD00128DC
:102470002AD159F8041C890308D4012001B0BDE811
:10248000F08300BF59F8041C8901F6D5D9F8001073
:1024900021F003010843C9F80000FFF71FFE0646BC
:1024A00041F28837D9F80000616800F00C00B0EB09
:1024B000810F97D0FFF712FE801BB842F2D903209C
:1024C00001B0BDE8F08300BF59F8041C8907D4D5DA
:1024D000DCE700BFD9F8002045F24013C2F34042C8
:1024E000C0F600039A5C4843B0FBF2F0D9F8001044
:1024F00045F22812C1F30311C0F60002515C40F20C
:102500000C0220FA01F140F20400C2F2000000685F
:10251000C2F200021160FFF709FE002001B0BDE821
:10252000F083000040F20C00C2F200000068704727
:1025300040F20C0041F20401C2F20000C4F20201B8
:102540000068096845F23812C1F30221C0F60002A2
:10255000515CC8407047000040F20C0041F2040199
:10256000C2F20000C4F202010068096845F23812A4
:10257000C1F3C221C0F60002515CC84070470000A0
:102580002DE9F04182B0002868D00446007841F27D
:102590000006C007C4F2020625D0706800F00C00E7
:1025A00004281BD0706800F00C00082802D1706865
:1025B000C00313D46068002800F06881B0F5A02F34
:1025C00000F07C81B0F5803F00F07C81306820F421
:1025D00080303060306820F4802076E130688003FD
:1025E00001D56068D0B32078800718D5706810F0E6
:1025F0000C0F07D0706800F00C0008286ED17068CE
:10260000C0036BD43068800702D52069012825D12A
:102610003068616920F0F80040EAC100306020783D
:1026200000071FD42078400732D4E56995B170685F
:1026300000F00C00082840F08F80012D0ED070684B
:10264000216A00F480328A4208D1616A00F4701075
:10265000884203D1002002B0BDE8F081012002B021
:10266000BDE8F081A069002862D00020C4F24220B9
:102670000121C0F88014FFF731FD0546706A80071C
:1026800000F18C80FFF72AFD401B0228F6D92AE1D1
:10269000F06910F0805808D1F06940F08050F06186
:1026A000F06900F080500090009847F20007C4F2F3
:1026B00000073868C00529D4386840F48070386055
:1026C000FFF70CFD054600BF3868C0051ED4FFF7B4
:1026D00005FD401B6428F7D905E100BF20690028EB
:1026E00040F20000C4F2422000F08280012101602B
:1026F000FFF7F4FC054600BF306880073FF588AF60
:10270000FFF7ECFC401B0228F6D9ECE0E06800285B
:1027100000F08080052800F09780012800F0988064
:10272000306A20F001003062306A20F0040092E04C
:102730000020C4F242200021C0F88014FFF7CEFC34
:10274000054600BF706A80077FF56CAFFFF7C6FCD7
:10275000401B0228F6D9C6E00027C4F24227002019
:102760003866FFF7BBFC022D05460BD130688001AF
:1027700040F1BE80FFF7B2FC401B02284FF003007F
:10278000F4D968E7306880017FF564AFFFF7A6FCF5
:10279000401B02284FF00300F4D95CE740F20C0024
:1027A000C2F20000006844F6D351C1F26201A0FBFE
:1027B0000101480A019000BF00BF0198411E002896
:1027C00001913FF42FAF00BF0198411E00280191F5
:1027D0003FF428AF00BF0198411E002801913FF44B
:1027E00021AF00BF0198411E00280191E4D119E7F3
:1027F00000210160FFF772FC054600BF30688007CA
:102800007FF50DAFFFF76AFC401B02284FF0030075
:10281000F4D920E7306A20F001003062306A20F0FD
:1028200004003062FFF75AFC054641F2883700BFCA
:10283000306A800720D5FFF751FC401BB8424FF0AB
:102840000300F5D907E700BF306A40F004003062AA
:10285000306A40F001003062FFF740FC054641F26B
:10286000883700BF306A800706D4FFF737FC401B6B
:10287000B842F7D937E000BFB8F1000F7FF4D5AE0A
:10288000F06920F08050F061CFE600BF306820F49E
:1028900080303060306820F480203060FFF71EFC0C
:1028A000054600BF306880037FF59DAEFFF716FC3C
:1028B000401B64284FF00300F4D9CCE6306840F4A4
:1028C00080203060306840F480303060FFF706FCD4
:1028D000054600BF306880033FF585AEFFF7FEFB7D
:1028E000401B6428F6D9032002B0BDE8F08100BF88
:1028F000206AB0F5803F05D17168A26821F40031EB
:10290000114371607168626A21F4741111430843C4
:10291000706001203866FFF7E1FB044630688001F3
:102920003FF598AEFFF7DAFB001B02284FF00300DB
:10293000F4D990E6411E0020B0EB116F1CBF0120BE
:1029400070474EF21002CEF2000251604EF6235153
:10295000CEF20001F0230B700721906011607047E8
:1029600081B090F84230202B08D100294FF00103AC
:1029700018BF002A06D1184601B070470223184636
:1029800001B0704701230363002343638162222166
:102990008285C285436480F84210026901681AB1D9
:1029A000CA6842F48072CA604A6942F001024A6110
:1029B000CA6842F02002CA60026B012A30D10022AC
:1029C00000920A680092496800910099016851E8F4
:1029D000031F026841F0100142E80313DBB10168F4
:1029E00051E8031F026841F0100142E8031393B15C
:1029F000016851E8031F026841F0100142E8031327
:102A00004BB1016851E8031F026841F0100142E830
:102A10000313002BDAD10023184601B0704700BF22
:102A20000123184601B0704740F2CC22C2F20002E6
:102A3000904218BF70470B4640F2940C40F2CC20F5
:102A400040F2CC01C2F2000CC2F20000C2F200015E
:102A50004FF48072ACF80230FFF782BF704700007D
:102A6000B0B582B0044600680168C368426901F0ED
:102A70002F05202D03F0200506D12DB1204602B0F0
:102A8000BDE8B04000F0A8BC5FEA017C1EBF02F0C8
:102A9000010E03F4907212EB0E0253D1226B012A45
:102AA00005D111F0100218BF13F0100236D10A063A
:102AB00022D513F080021FD094F8411021293FD174
:102AC000A168B1F5805F03D12169002900F070820F
:102AD000216A4A1C226209784160E18C01390A04AA
:102AE000E1842DD1C16821F08001C160C16841F04D
:102AF0004001C16002B0B0BD490621D513F04001CC
:102B00001ED0C16821F04001C1602021204684F818
:102B1000411002B0BDE8B04000F048BC0021019176
:102B2000016801914168019101994069400613D4FF
:102B3000A08DE18DE28D002A18BF884240F0BA8155
:102B400002B0B0BDCA0718BF13F4807240F0B6805F
:102B50004A0700F1B980BEE0E06B016849688AB2BB
:102B6000002AEDD0A38D9A42EAD2E185806920281F
:102B700000F09C80206850E8030F216820F48070EA
:102B800041E80302DAB1206850E8030F216820F41D
:102B9000807041E8030292B1206850E8030F216879
:102BA00020F4807041E803024AB1206850E8030F26
:102BB000216820F4807041E80302002ADAD12068FD
:102BC00050E8050F216820F0010041E80502DAB164
:102BD000206850E8050F216820F0010041E8050257
:102BE00092B1206850E8050F216820F0010041E80B
:102BF00005024AB1206850E8050F216820F0010065
:102C000041E80502002ADAD1206850E8050F216862
:102C100020F0400041E80502DAB1206850E8050FD5
:102C2000216820F0400041E8050292B1206850E898
:102C3000050F216820F0400041E805024AB12068F4
:102C400050E8050F216820F0400041E80502002A05
:102C5000DAD1202084F8420000202063206850E868
:102C6000030F216820F0100041E80302DAB1206868
:102C700050E8030F216820F0100041E8030292B1F0
:102C8000206850E8030F216820F0100041E803029B
:102C90004AB1206850E8030F216820F0100041E895
:102CA0000302002ADAD1E06BFEF7ECFF022060633A
:102CB000A08DE18D401A81B2204674E1626C42F031
:102CC000010262644A0706D5BEF1000F03D0626CB0
:102CD00042F0020262648A0706D5BEF1000F03D0FB
:102CE000626C42F004026264BCF1000F09D545EA4F
:102CF0000E02B2FA82F2520903D1626C42F008026B
:102D00006264626C002A3FF41BAF11F0200118BF0F
:102D1000002D03D0204600F05FFB20684069616C05
:102D200000F0400001F00801401800F0B58000BF3D
:102D3000206850E8030F216820F4907041E80302F6
:102D4000BAB3206850E8030F216820F4907041E87E
:102D5000030272B3206850E8030F216820F49070DA
:102D600041E803022AB3206850E8030F216820F4E9
:102D7000907041E80302002ADAD11AE0206850E896
:102D8000050F216820F0010041E80502DAB1206852
:102D900050E8050F216820F0010041E8050292B1DA
:102DA000206850E8050F216820F0010041E8050285
:102DB0004AB1206850E8050F216820F0010041E881
:102DC0000502002ADAD1206B012824D1206850E8BE
:102DD000030F216820F0100041E80302DAB12068F7
:102DE00050E8030F216820F0100041E8030292B17F
:102DF000206850E8030F216820F0100041E803022A
:102E00004AB1206850E8030F216820F0100041E823
:102E10000302002ADAD1202084F842000020206337
:102E20002068406940063FD5206850E8050F2168BA
:102E300020F0400041E80502DAB1206850E8050FB3
:102E4000216820F0400041E8050292B1206850E876
:102E5000050F216820F0400041E805024AB12068D2
:102E600050E8050F216820F0400041E80502002AE3
:102E7000DAD1E06BC0B143F2CD31C0F6000141635D
:102E8000FEF724FF00283FF45BAEE06B416B02B01D
:102E9000BDE8B040084700BF2046FFF7DFFD002037
:102EA000606402B0B0BD00BF204602B0BDE8B040D3
:102EB000FFF7D4BD401A216851E8031F226821F4AE
:102EC000907142E80313DBB1216851E8031F2268C7
:102ED00021F4907142E8031393B1216851E8031F74
:102EE000226821F4907142E803134BB1216851E844
:102EF000031F226821F4907142E80313002BDAD1FA
:102F0000216851E8051F226821F0010142E80513FC
:102F1000DBB1216851E8051F226821F0010142E878
:102F2000051393B1216851E8051F226821F00101C2
:102F300042E805134BB1216851E8051F226821F0D2
:102F4000010142E80513002BDAD1202184F8421058
:102F500000212163216851E8031F226821F010013C
:102F600042E80313DBB1216851E8031F226821F016
:102F7000100142E8031393B1216851E8031F22684E
:102F800021F0100142E803134BB1216851E8031FFF
:102F9000226821F0100142E80313002BDAD102224B
:102FA00081B22046626302B0BDE8B040FFF73CBD8D
:102FB000216A31F8022B6FF35F22426021628CE5B7
:102FC000002804BF0120704710B5044690F8410066
:102FD00028B9002084F84000204600F063F824203F
:102FE00084F841002068D4E90212C36823F4005336
:102FF000C360036923F440531A430261D4E90423F4
:103000001143C268194341F20C639A431143C160F2
:103010004169A26921F44071114343F60002C4F2F0
:1030200001029042416103D0FFF782FA02E000BF43
:10303000FFF792FA6268192148439100B0FBF1F062
:1030400048F21F51C5F2EB11A0FB01235A094FF6BC
:103050009C73C0F6FF7302FB0300322303EB0010E6
:10306000A0FB0101F02303EA5113206803EB0212D5
:10307000C1F3431111448160016921F49041016160
:10308000416921F02A014161C16841F40051C160E8
:1030900000202021606484F8411084F842106063AD
:1030A00010BD000070B586B040F60004C4F2010403
:1030B000006804F5405100268842049602D006B00C
:1030C00070BD00BF41F21800C4F20200016802ADF9
:1030D00041F480410160016801F48041019101994E
:1030E000016841F0040101600068294600F0040015
:1030F000019001984FF40070029002200390032089
:1031000005902046FEF7C8FE4FF48060CDE9020628
:10311000204629460496FEF7BFFE25200021002206
:10312000FFF75EF82520FFF747F806B070BD0000F6
:10313000704700002DE9F04381B0044690F841004B
:10314000202840F0B180884600294FF0010000F0AF
:10315000D6801646002A00F0D2800020606421202C
:103160001D4684F84100FEF7B9FFA684E684A168F5
:103170000646B1F5805F03D12069002800F09880F1
:1031800047464FF00008E18C2068002900F0968047
:1031900005F101090BE000BF47B317F8011B4160BF
:1031A000E18C0139E184E18C002900F0878001681D
:1031B0000906F1D4B9F1000F0AD0EDB1FEF78EFF88
:1031C000801BA84218D8206801680906F6D5E3E7F5
:1031D00001680906E0D4016809065CBF01685FEA7E
:1031E0000161D9D401680906F2D5D5E738F8021B88
:1031F00000276FF35F21D2E7206850E8030F2168B2
:1032000020F4D07041E80302BAB3206850E8030FFD
:10321000216820F4D07041E8030272B3206850E8BE
:10322000030F216820F4D07041E803022AB320681C
:1032300050E8030F216820F4D07041E80302002A0F
:10324000DAD11AE0206850E8050F216820F001006B
:1032500041E80502DAB1206850E8050F216820F046
:10326000010041E8050292B1206850E8050F21688D
:1032700020F0010041E805024AB1206850E8050F3E
:10328000216820F0010041E80502002ADAD120205F
:1032900084F8410084F84200002084F840000320B4
:1032A00001B0BDE8F08300BF022001B0BDE8F083AB
:1032B0000027E18C206800297FF46AAF0168490685
:1032C00019D4FDB1691C0DD10168490613D40168F8
:1032D00049065CBF01685FEA41610CD40168490698
:1032E000F2D508E0FEF7FAFE801BA8420AD8206853
:1032F00000684006F6D5202084F84100002001B087
:10330000BDE8F083206850E8030F216820F4D070F6
:1033100041E80302002A3ED0206850E8030F2168EC
:1033200020F4D07041E80302AAB3206850E8030FEC
:10333000216820F4D07041E8030262B3206850E8AD
:10334000030F216820F4D07041E80302002AD9D18C
:1033500021E000BF206850E8050F216820F001003F
:1033600041E80502002A3FF492AF206850E8050FBB
:10337000216820F0010041E80502002A3FF487AFF0
:10338000206850E8050F216820F0010041E805029F
:10339000002A3FF47CAF206850E8050F216820F038
:1033A000010041E80502002AD4D170E7704700000F
:1033B000FEE70000FEE70000FEE7000070470000A7
:1033C00070470000FEF790BE70470000406A002181
:1033D000C185C184FFF742BB81B090F84210222919
:1033E00021D183680246B3F5805F09D152F8281FC6
:1033F00052F8183C002B63D003685B680AE000BFFA
:1034000052F8281F13B90369002BF5D003685B68D5
:1034100003F07F030B70116801311160C18D013918
:103420000A04C18502D001B0704700BF0168CA68B4
:1034300022F02002CA60CA6822F48072CA604A6917
:1034400022F001024A61202180F8421000214163EC
:10345000026B012A3CD10163016851E8031F026835
:1034600021F0100142E80313DBB1016851E8031FAA
:10347000026821F0100142E8031393B1016851E89A
:10348000031F026821F0100142E803134BB10168E9
:1034900051E8031F026821F0100142E80313002BDA
:1034A000DAD101680A68D20606D5002200920A68BD
:1034B0000092496800910099818D01B0FFF7B4BA7C
:1034C000026852686FF35F2221F8022B8162A5E740
:1034D00001B0FFF72DBE000040F2CC20C2F2000088
:1034E000FFF7BEBAFEE7000080B540F27001C2F2FD
:1034F0000001886949880022FEF7EAFD8020BDE8C6
:10350000804000F039BA0000F0B583B040F2700599
:10351000C2F20005A869A98841F204040122CEF292
:103520000004FEF7D5FD142001902768FEF7FAFF8E
:103530004DF68366C4F21B36A0FB06010198890C88
:103540004843019020680199C01B88420ED2206830
:103550000199C01B884209D220680199C01B88428A
:1035600004D220680199C01B8842EBD3A869A988BE
:103570000022FEF7ADFD3C2002902568FEF7D2FF49
:10358000A0FB06010298890C48430290206802992A
:10359000401B88420ED220680299401B884209D203
:1035A00020680299401B884204D220680299401B7F
:1035B0008842EBD303B0F0BDF0B581B04EF6FC54B9
:1035C000CEF20004DDE908ECDDE90665276827F0A6
:1035D00080772760276847F08077276041F20004F2
:1035E000CEF20004276827F001072760276847F01C
:1035F000010727600027676000BF00BF00BF646845
:1036000040F27004C2F20004A0610120207040F278
:1036100008006180C2F20000282101701420A280FD
:103620002362E6812582A4F812E0A4F814C0FEF714
:10363000A7FBA06961880022FEF74AFD206AE189A4
:103640000122FEF745FD206A218A0222FEF740FD95
:10365000206A618A0022FEF73BFD206AA18A0022CF
:10366000FEF736FDFFF750FF0520FEF789FBA06946
:1036700061880022FEF72CFD206AE1890122FEF715
:1036800027FD206A218A0222FEF722FD206A618A34
:103690000022FEF71DFD206AA18A0022FEF718FD18
:1036A000FFF732FF0120FEF76BFBA0696188002263
:1036B000FEF70EFD206AE1890122FEF709FD206A6E
:1036C000218A0222FEF704FD206A618A0022FEF7A9
:1036D000FFFC206AA18A0022FEF7FAFCFFF714FF24
:1036E0000120FEF74DFBA06961880022FEF7F0FC87
:1036F000206AE1890022FEF7EBFC206A218A02227F
:10370000FEF7E6FC206A618A0022FEF7E1FC206AEF
:10371000A18A0022FEF7DCFCFFF7F6FE0120FEF78F
:103720002FFBA06961880022FEF7D2FC282000F060
:1037300023F9A06961880022FEF7CAFC0C2000F082
:103740001BF9A06961880022FEF7C2FC012000F08D
:1037500013F9032001B0BDE8F040FEF711BB0000F3
:1037600083B0B0B587B084460BA80EC00BAA02A8E0
:1037700061460192FCF77EFD9DF80800002800F0EC
:10378000F68040F27005C2F20005A86969889DF8CC
:1037900008400122FEF79CFC204600F0EDF802A84C
:1037A000FCF77AFD0228C0F0E280A86969889DF8DC
:1037B00009400122FEF78CFC204600F0DDF802A84B
:1037C000FCF76AFD0328C0F0D280A86969889DF8DB
:1037D0000A400122FEF77CFC204600F0CDF802A84A
:1037E000FCF75AFD0428C0F0C280A86969889DF8DA
:1037F0000B400122FEF76CFC204600F0BDF802A849
:10380000FCF74AFD0528C0F0B280A86969889DF8D8
:103810000C400122FEF75CFC204600F0ADF802A847
:10382000FCF73AFD0628C0F0A280A86969889DF8D7
:103830000D400122FEF74CFC204600F09DF802A846
:10384000FCF72AFD0728C0F09280A86969889DF8D6
:103850000E400122FEF73CFC204600F08DF802A845
:10386000FCF71AFD0828C0F08280A86969889DF8D5
:103870000F400122FEF72CFC204600F07DF802A844
:10388000FCF70AFD092872D3A86969889DF81040E1
:103890000122FEF71DFC204600F06EF802A8FCF79E
:1038A000FBFC0A2863D3A86969889DF811400122AE
:1038B000FEF70EFC204600F05FF802A8FCF7ECFCD7
:1038C0000B2854D3A86969889DF812400122FEF79D
:1038D000FFFB204600F050F802A8FCF7DDFC0C28A6
:1038E00045D3A86969889DF813400122FEF7F0FBD3
:1038F000204600F041F802A8FCF7CEFC0D2836D394
:10390000A86969889DF814400122FEF7E1FB204672
:1039100000F032F802A8FCF7BFFC0E2827D3A869F4
:1039200069889DF815400122FEF7D2FB204600F081
:1039300023F802A8FCF7B0FC0F2818D3A8696988FF
:103940009DF816400122FEF7C3FB204600F014F854
:1039500002A8FCF7A1FC102809D3A86969889DF882
:1039600017400122FEF7B4FB204600F005F807B02F
:10397000BDE8B04003B0704770B540F27005C2F2C8
:103980000005297804464FEA1016D9B1286AE9895A
:1039900006F00102FEF79CFB286A298A06F0020263
:1039A000FEF796FB286A698A06F00402FEF790FB90
:1039B000286AA98A06F00802FEF78AFBFFF7A4FD31
:1039C000264617E0E869E98804F00102FEF780FB6B
:1039D000E869298904F00202FEF77AFBE86969893F
:1039E00004F00402FEF774FBE869A98904F00802F8
:1039F000FEF76EFB286AE98906F00102FEF768FB14
:103A0000286A298A06F00202FEF762FB286A698AA0
:103A100006F00402FEF75CFB286AA98A06F0080299
:103A2000FEF756FBBDE87040FFF76EBD98B0FEF79D
:103A300069FB0EAC201D2421FCF74DFC02200E90EA
:103A40000120129010200025139020460895CDE902
:103A500006551595FEF794FD20B1EFF3108072B670
:103A6000FEE700BF0F20CDE9090509A80021CDE937
:103A70000B550D95FEF776FC20B1EFF3108072B672
:103A8000FEE700BF4FF00208002405A8CDF814801F
:103A90000794FEF7E1FB28B1EFF3108072B600BF88
:103AA000FEE700BF41F21800C4F20200016840F6D0
:103AB000000A41F0040101600168C4F2010A01F04A
:103AC00004010E910E9901680AF5806941F0080120
:103AD00001600068F32100F008000E900E9848463F
:103AE0000022F325FEF7F4FA50464FF4106100224D
:103AF000FEF7EEFA0E950EAD4FF0010B0327484688
:103B00002946CDE90FB41197FEF7C6F94FF480703E
:103B1000CDE90E0B50462946CDE91047FEF7BCF91A
:103B20004FF40060CDE90E0B50462946CDE9104810
:103B3000FEF7B2F940F29406C2F200060AF5E0512F
:103B4000304640F8081F4FF4602104730475C161CA
:103B5000C0E90144C0F810B0FDF740FF20B1EFF319
:103B6000108072B6FEE700BF072006F1080510902E
:103B70000EA92846CDE90EBBFDF7CEFD20B1EFF32F
:103B8000108072B6FEE700BF40F60004C4F20104E4
:103B900040F2CC2004F54051C2F2000000270C2373
:103BA0004FF4165280E88600C0E90377C0E9053774
:103BB000C761FFF705FA28B1EFF3108072B600BFB6
:103BC000FEE700BF8020402120221023CDE90032F3
:103BD000CDE902104846012102224B464AF2010B70
:103BE000FFF7EAFC40F2CC27C2F2000740F2CC011A
:103BF000C2F2000138464FF48072FEF7B1FE28464B
:103C0000FDF7D6FF40F2CC10C2F20000A1460446F8
:103C1000049516E00020CAF8020028464FF480718F
:103C2000FCF759FB48464FF480714C46FCF753FBB8
:103C3000384629464FF48072FEF792FE049DC14635
:103C400056462846FDF7B4FFC820FEF799F8FFF75F
:103C50004BFCF1880FF6A030FFF782FDF088B0F53D
:103C60007A6F07D948464FF40061FEF729FA307899
:103C7000B8B907E048464FF400610022FEF728FA81
:103C8000307870B906203070FEF7EEF8328848F2CE
:103C900000010120C0F600010023FEF78FF8FEF7B7
:103CA00083F870880028CCD040F2CC05821EC2F286
:103CB000000535F802C093B2B246C846A146002BB3
:103CC0004FF6FF7400F0A080012B00F0010205D137
:103CD00000234FF6FF74002A6BD195E0AE46D71A49
:103CE0006FF001034FF6FF740EEB0305AE78ED782D
:103CF0006640B4B28BEA5401F60708BF61088BEA4C
:103D00005106CC0708BF4E088BEA5601F40708BFDE
:103D100071088BEA5106CC0708BF4E088BEA5601A2
:103D2000F40708BF71088BEA5106CC0708BF4E089C
:103D30008BEA5601F40708BF71088BEA5106CC07DD
:103D400008BF4E0886EA05018BEA5106CD0708BF79
:103D50004E088BEA5601F50708BF71088BEA510639
:103D6000CD0708BF4E088BEA5601F50708BF71085A
:103D70008BEA5106CD0708BF4E088BEA5601F507BE
:103D800008BF71088BEA5106CD0708BF4E08F1073E
:103D900003F102038BEA560407EB030108BF740822
:103DA0000231A1D140F2CC270233C2F2000775469E
:103DB00052B3E95C61408AB28BEA5203C90708BF7B
:103DC00053088BEA5301DA0708BF59088BEA5102FE
:103DD000CB0708BF4A088BEA5201D30708BF510836
:103DE0008BEA5102CB0708BF4A088BEA5201D3077E
:103DF00008BF51088BEA5102CB0708BF4A088BEA7B
:103E00005204D10708BF5408A1B28C457FF402AF19
:103E100029789AF800204C46914240F0D1806A7887
:103E2000062A00F0E580C146032A40F08B816888AD
:103E300000BA000CB0F5897F00F0168211285646B2
:103E400000F0D882012840F0CB83A888012200BA74
:103E5000B2EB104F40F0C283032060700220B080AC
:103E60006080C84382B28BEA5203C007217021717F
:103E700008BF53088BEA5300DA0708BF58088BEADB
:103E80005002C30708BF42088BEA5200D30708BF9D
:103E900050088BEA5002C30708BF42088BEA520061
:103EA000D30708BF50088BEA5002C30708BF420877
:103EB0008BEA5200D30708BF500880F003008BEA5A
:103EC0005002C30708BF42088BEA5200D30708BF5D
:103ED00050088BEA5002C30708BF42088BEA520021
:103EE000D30708BF50088BEA5002C30708BF420837
:103EF0008BEA5200D30708BF50088BEA5002C30771
:103F000008BF42088BEA5200D30708BF5008C20717
:103F10004AF20002CFF6FF7208BF012282EA500087
:103F200082B28BEA5203C00708BF53088BEA5300E2
:103F3000DA0708BF58088BEA5002C30708BF4208D7
:103F40008BEA5200D30708BF50088BEA5002C30720
:103F500008BF42088BEA5200D30708BF50088BEA1B
:103F60005002C30708BF42088BEA5200D30708BFBC
:103F700050088BEA5002C30708BF42088BEA520080
:103F8000D30708BF50088BEA5002C30708BF420896
:103F90008BEA5200D30708BF50088BEA5002C307D0
:103FA00008BF42088BEA5200D30708BF50088BEACB
:103FB0005002C30708BF420882EA0100D9E200BFED
:103FC0000020CAF8020028464FF480715646FCF7DC
:103FD00082F920464FF48071FCF77DF93846294676
:103FE0004FF48072FEF7BCFC049DC14629E600BF79
:103FF0006988564691FA91F9B9F5897F4FF0000822
:1040000064D0B9F1010F40F0F882A9884FF0FF3376
:104010000ABA03EB1242F62A00F2E88291FA91FA08
:10402000002100BFCBB241F00102EF5CD2B290425E
:10403000E75413D941F00203AF5CDBB29842A754B6
:104040000CD941F00302EF5CD2B29042E75405D99B
:104050000431AB5CCFB2B842A354E3D840F2CC27D2
:10406000C2F200073846214608224FF0FF33FFF71F
:1040700061F8FDF7F9FE48F200010120C0F60001E9
:1040800052460023FDF79AFEFDF78EFE40F2CC006B
:10409000C2F200004FF48071C6F80280FCF71BF9F1
:1040A00020464FF48071FCF716F940F2CC013846F7
:1040B000C2F200014FF48072FEF752FC40F2CC05D0
:1040C000C2F20005B9F5897F40F09782A88800BA4E
:1040D000000C00F0438340F600090128C4F20109F6
:1040E00040F07C8248464FF480710122FDF7F0FFDA
:1040F000728840F2CC05002AC2F2000500F05C8311
:10410000002000BFC3B240F00101EF5CC9B28A4297
:10411000E75440F2518340F002036F5CDBB29A42F5
:10412000675440F2498340F00301EF5CC9B28A4210
:10413000E75440F2418304306B5CC7B2BA42635427
:10414000E0D839E36FF07F00217050400122C9436D
:10415000A2708AB28BEA5203C907607008BF530885
:104160008BEA5301DA0708BF59088BEA5102CB07E3
:1041700008BF4A088BEA5201D30708BF51088BEAEF
:104180005102CB0708BF4A088BEA5201D30708BF88
:1041900051088BEA5102CB0708BF4A088BEA52014B
:1041A000C0B2D30708BF510848408BEA5001C2078C
:1041B00008BF41088BEA5100CA0708BF48088BEACC
:1041C0005001C20708BF41088BEA5100CA0708BF67
:1041D00048088BEA5001C20708BF41088BEA51002A
:1041E000CA0708BF48088BEA5001C20708BF410848
:1041F0008BEA5100CA0708BF48084108C20708BF38
:104200008BEA50018BEA5100CA0708BF48088BEAC5
:104210005001C20708BF41088BEA5100CA0708BF16
:1042200048088BEA5001C20708BF41088BEA5100D9
:10423000CA0708BF48088BEA5001C20708BF4108F7
:104240008BEA5100CA0708BF4808E070000A2071D5
:104250003846214605224FF0FF33FEF76BFF002062
:104260005646CAF80200B3E2A888012100BAB1EBB1
:10427000104F564640F0B28148464FF48071FDF72A
:1042800019FF02233278B38063806FF0FF0322703E
:1042900063EA0202697893B28BEA5307D20761702E
:1042A000207108BF5F088BEA5702FB0708BF7A0836
:1042B0008BEA5203D70708BF53088BEA5302DF0784
:1042C00008BF5A088BEA5203D70708BF53088BEA86
:1042D0005302DF0708BF5A088BEA5203D70708BF0B
:1042E00053088BEA5302DF0708BF5A0851408BEA94
:1042F0005102CB0708BF4A088BEA5201D30708BF17
:1043000051088BEA5102CB0708BF4A088BEA5201D9
:10431000D30708BF51088BEA5102CB0708BF4A08F0
:104320008BEA5201D30708BF51088BEA5102CB0731
:1043300008BF4A088BEA5201D30708BF5108CA07D1
:104340004AF20002CFF6FF7208BF012282EA510151
:104350008AB28BEA5203C90708BF53088BEA53019C
:10436000DA0708BF59088BEA5102CB0708BF4A0891
:104370008BEA5201D30708BF51088BEA5102CB07E1
:1043800008BF4A088BEA5201D30708BF51088BEADD
:104390005102CB0708BF4A088BEA5201D30708BF76
:1043A00051088BEA5102CB0708BF4A088BEA520139
:1043B000D30708BF51088BEA5102CB0708BF4A0850
:1043C0008BEA5201D30708BF51088BEA5102CB0791
:1043D00008BF4A088BEA520140F2CC27D30708BF36
:1043E00051088BEA5102C2F20007CB0708BF4A0806
:1043F0005040BEE0A888012200BAB2EB104F40F056
:10440000ED800220B080F08840F203222170A4F8F1
:10441000012042BAC943A4F803208AB28BEA5203AE
:10442000C90708BF53088BEA5301DA0708BF5908C8
:104430008BEA5102CB0708BF4A088BEA5201D30727
:1044400008BF51088BEA5102CB0708BF4A088BEA24
:104450005201D30708BF51088BEA5102CB0708BFAE
:104460004A088BEA5201D30708BF510881F00301C3
:104470008BEA5102CB0708BF4A088BEA5201D307E7
:1044800008BF51088BEA5102CB0708BF4A088BEAE4
:104490005201D30708BF51088BEA5102CB0708BF6E
:1044A0004A088BEA5201D30708BF51088BEA510230
:1044B000CB0708BF4A088BEA5201D30708BF51084F
:1044C000CA074AF20002CFF6FF7208BF012282EA51
:1044D00051018AB28BEA5203C90708BF53088BEA1D
:1044E0005301DA0708BF59088BEA5102CB0708BF0E
:1044F0004A088BEA5201D30708BF51088BEA5102E0
:10450000CB0708BF4A088BEA5201D30708BF5108FE
:104510008BEA5102CB0708BF4A0882EA10218BEAD6
:104520005102CB0708BF4A088BEA5201D30708BFE4
:1045300051088BEA5102CB0708BF4A088BEA5201A7
:10454000D30708BF51088BEA5102CB0708BF4A08BE
:104550008BEA5201D30708BF51088BEA5102CB07FF
:1045600008BF4A088BEA5201C0B2D30708BF5108FE
:1045700048408BEA5001C20708BF41088BEA51004E
:10458000CA0708BF48088BEA5001C20708BF4108A4
:104590008BEA5100CA0708BF48088BEA5001C207DE
:1045A00008BF41088BEA5100CA0708BF48088BEAD8
:1045B0005001C20708BF41088BEA5100CA0708BF73
:1045C0004808A4F805003846214607224FF0FF337B
:1045D000FEF7B0FD0020C6F80200F9E0032000E07D
:1045E0000220FCF7DFFF049DFFF72BBB0320FCF745
:1045F000D9FF40F2CC05C2F2000568786FF07F0267
:10460000317850400222A2706FF0FF02217062EAFE
:1046100001018AB28BEA5203C907607008BF5308D0
:104620008BEA5301DA0708BF59088BEA5102CB071E
:1046300008BF4A088BEA5201D30708BF51088BEA2A
:104640005102CB0708BF4A088BEA5201D30708BFC3
:1046500051088BEA5102CB0708BF4A088BEA520186
:10466000C0B2D30708BF510848408BEA5001C207C7
:1046700008BF41088BEA5100CA0708BF48088BEA07
:104680005001C20708BF41088BEA5100CA0708BFA2
:1046900048088BEA5001C20708BF41088BEA510065
:1046A000CA0708BF48088BEA5001C20708BF410883
:1046B0008BEA5100CA0708BF4808C1074AF2000147
:1046C000CFF6FF7108BF012181EA500081B28BEA69
:1046D0005102C00708BF4A088BEA5200D10708BF41
:1046E00050088BEA5001C20708BF41088BEA51000D
:1046F000CA0708BF48088BEA5001C20708BF410833
:104700008BEA5100CA0708BF48088BEA5001C2076C
:1047100008BF4108080AE170207138462146052289
:104720004FF0FF33FEF706FD28464FF48071C6F8C0
:104730000280FBF7D0FD20464FF48071FBF7CBFDE4
:10474000384629464FF48072FEF70AF940F6000910
:10475000049DC4F20109FFF774BA00BF40F60009D6
:10476000C4F2010948464FF480710022FDF7B0FC05
:10477000728840F2CC05C2F20005EAB1002000BF09
:10478000C3B240F00101EF5CC9B28A42E75413D9C9
:1047900040F002036F5CDBB29A4267540CD940F0E0
:1047A0000301EF5CC9B28A42E75405D904306B5C5F
:1047B000C7B2BA426354E3D840F2CC27C2F2000732
:1047C000384621464FF0FF33FEF7B4FCC6F80280AE
:1047D00028464FF48071FBF77EFD20464FF4807130
:1047E000FBF779FD384629464FF48072FEF7B8F89A
:1047F000049DFFF726BA00BF4D51323A20256420B0
:1048000070706D005FEA400C08BF91F0000F4FEA36
:104810008C234FEAC12243EA51514FEA1C5018BF82
:1048200000F5F0404FEA300018BF41F000415FEA68
:104830006C5C00F02980BCF1FF3F08BF40F0804075
:104840007047130C06BF12044FF0100C4FF0000C11
:10485000130E04BF12020CF1080C130F04BF120157
:104860000CF1040C930F04BF92000CF1020CD30F57
:1048700004BF52000CF1010C11464FF00002A0F1F0
:104880001F00A0EB0C00704711F0004F08BF7047ED
:1048900031F000413FF4D5AF0B0C06BF09044FF0D7
:1048A000100C4FF0000C0B0E04BF09020CF1080CA9
:1048B0000B0F04BF09010CF1040C8B0F04BF89001E
:1048C0000CF1020CCB0F04BF49000CF1010CCCF130
:1048D000200322FA03F341EA030102FA0CF2A0EBEF
:1048E0000C0000F10100704723F07F4720F07F4C5F
:1048F00080EA030000F00040ACEB070303F57C53B3
:1049000003F1FF032DE9804909B44FEA144324EA77
:1049100003484FEA154B25EA0B4E0FF2042606EB2F
:1049200013273E7803FB0667C7F5000707FB06F66B
:104930004FEAD64606F102064FEA543707FB066CEB
:10494000CCF1005C4FEA1C472CEA074C0CFB06F547
:1049500007FB06F404EB15464FEA961649085FEA92
:10496000320234BF00204FF000404FEAD13706FB3F
:1049700007FC4FEA1C4C0CFB0BF7D21B03FB0CF79C
:1049800061EB07010CFB0EF7B0EB074072EB17422F
:104990000CFB08F734BFA2EB0742B2EB074261EB16
:1049A00017414FEA0C444FEA910706FB07FC4FEA18
:1049B0001C4C0CFB0BF7B0EBC74072EB573203FB00
:1049C0000CF734BFA2EBC742B2EBC74261EB5731E1
:1049D0000CFB0EF7B0EBC70072EB57720CFB08F73D
:1049E00034BFA2EBC702B2EBC70261EB57714FEACB
:1049F000816141EA92114FEA826242EA90124FEAE3
:104A0000806004EBCC04039F4FEAD13706FB07FC20
:104A10004FEA1C4C0CFB0BF7D21B03FB0CF761EBB2
:104A200007010CFB0EF7B0EB074072EB17420CFBD3
:104A300008F734BFA2EB0742B2EB074261EB174124
:104A40004FEA8C5504EB9C244FEA910706FB07FCC8
:104A50004FEA1C4C0CFB0BF7B0EBC74072EB573224
:104A600003FB0CF734BFA2EBC742B2EBC74261EBCA
:104A700057310CFB0EF7B0EBC70072EB57720CFB13
:104A800008F734BFA2EBC702B2EBC70261EB577164
:104A90004FEA816141EA92114FEA826242EA901242
:104AA0004FEA806015EB4C2544F100044FEAD13702
:104AB00006FB07FC4FEA1C4C0CFB0BF7D21B03FB5D
:104AC0000CF761EB07010CFB0EF7B0EB074072EB44
:104AD00017420CFB08F734BFA2EB0742B2EB0742C8
:104AE00061EB17414FEA813141EA92414FEA82324C
:104AF00042EA90424FEA80304FEA0C7615EB1C15E3
:104B000044F1000448EA03434EEA0B484FF0000E1C
:104B1000B2EB080C71EB030724BF624639464EEB3B
:104B20000E0E4FF0000B0018524149414BEB0B0B9E
:104B3000B2EB080C71EB03077BF1000B24BF62465C
:104B400039464EEB0E0E4FF0000B00185241494112
:104B50004BEB0B0BB2EB080C71EB03077BF1000B7B
:104B600024BF624639464EEB0E0E51EA020718BFCB
:104B700046F0010616EB0E7655F1000254F10001E5
:104B800003D5BDE88901BDE80088BDE88901BDE81D
:104B90000048B619524141EB0101A3F101037047EE
:104BA00080807F7E7D7C7B7A79787776767574736A
:104BB000727171706F6E6E6D6C6C6B6A6A69686829
:104BC000676666656464636362616160605F5F5EBF
:104BD0005E5D5D5C5C5B5B5A5A5959585857575635
:104BE000565555555454535352525251515050509A
:104BF0004F4F4F4E4E4D4D4D4C4C4C4B4B4B4A4AEC
:104C00004A4949494848484747474746464645452F
:104C10004544444444434343434242424241414168
:104C20009C46002B30D477002BD04FEA37071CB5B9
:104C300003B44FF010004FF01001BAF1000F06D08E
:104C4000BCF1000FDCBF40F0080040F008014FF05D
:104C500000000FBCBDE810400BF1010BBBF1010FD0
:104C600008BF5FEA170722BF12F1010211F101012B
:104C70004FF0004143F1000300F0004043EA000020
:104C80007047F9D35708D0E746EA06464FEA16467A
:104C900013F1400F1FDD13F1200FDFBF16430A464B
:104CA000002120335B42BED0C3F1200746EA06460E
:104CB0004FEA164602FA07F746EA070622FA03F217
:104CC000C3F1200701FA07F742EA070221FA03F1CC
:104CD0004FF00003A7E746EA020646EA06464FEA17
:104CE000164646EA0106BCBF46EA0646360C4FF0B9
:104CF00000034FF000024FF0000194E72DE9804CD3
:104D000070B49A46934691E8380007C831EA400CDF
:104D100048BF34EA430C03D5FFF7E6FDFFF780FFF9
:104D2000F0BCBDE8008C2DE9804C70B49A469346E7
:104D300091E8380007C810F0804F08BF13F0804F8B
:104D400003D100F005F8FFF76BFFF0BCBDE8008C65
:104D500020F07F4723F07F4C80EA030000F0004002
:104D600007EB0C03A3F57C53A3F1FE0392F0000FB5
:104D700000F0B38095F0000F00F077802DE9014935
:104D80004FEA114021EA00484FEA144624EA064758
:104D900000FB06FC08FB06F607FB08F818EB0648C4
:104DA0004CEB164C00FB07F718EB07484CEB174091
:104DB0004FEA124B22EA0B4E4FEA154625EA064708
:104DC0000BFB06FC0EFB06F607FB0EFE1EEB064E6B
:104DD0004CEB164C0BFB07F71EEB074E4CEB174B3F
:104DE00018EB0B0840F1000018EB0E0B58EB000815
:104DF00040F100008F1A4FF000014FF000063CBF59
:104E0000C943661B14BFB5EB040C00213CBFC9436A
:104E1000F61B4FEA174427EA04454FEA1C472CEAE1
:104E2000074C04FB076205FB07F70CFB05F616EBC6
:104E3000074642EB174204FB0CFC16EB0C4642EB18
:104E40001C421BEB060658EB020241414EEA8E0E55
:104E500046EA9E0601D5BDE80189B619524141EBEB
:104E60000101A3F10103BDE801894FEA144524EAD9
:104E700005464FEA114721EA074C05FB07F406FBFC
:104E800007F70CFB06F111EB074144EB174405FB58
:104E90000CFC11EB0C4144EB1C444FEA124722EA94
:104EA000074C05FB07F206FB07F70CFB06F616EBB3
:104EB000074642EB174205FB0CFC16EB0C4642EB97
:104EC0001C456A1854F1000148BF7047B619524199
:104ED00041EB0101A3F10103704795F0000F37D0BA
:104EE0004FEA114221EA02464FEA144724EA074CEE
:104EF00002FB07F106FB07F70CFB06F414EB074473
:104F000041EB174102FB0CFC14EB0C4441EB1C4140
:104F10004FEA154725EA074C02FB07F506FB07F7A2
:104F20000CFB06F616EB074645EB174502FB0CFC9F
:104F300016EB0C4645EB1C42121951F1000148BF1B
:104F40007047B619524141EB0101A3F101037047CB
:104F50004FEA144524EA05464FEA114721EA074C77
:104F600005FB07F106FB07F70CFB06F212EB074205
:104F700041EB174105FB0CFC12EB0C4251EB1C41C1
:104F80004FF0000648BF7047921841EB0101A3F1B2
:104F900001037047490050EAC12018BF04204A0DA0
:104FA00018BF40F0010040F2FF72B2EB515F08BF42
:104FB00040F00200012808BF0520704730380A2859
:104FC00001D20120704700207047000010B5002971
:104FD0000AD00878002807D005487844FCF7C4F9BF
:104FE000002801D0002010BD0248784410BD000008
:104FF0009A0100009201000010B500290AD008783B
:10500000002807D005487844FCF7AEF9002801D005
:10501000002010BD0248784410BD00008A01000045
:1050200082010000FBF7AABDFBF7DEBE0000000016
:1050300000000000303132333435363738394142E0
:1050400043444546403058003031323334353637EA
:105050003839616263646566403078000400000896
:10506000000000000000000200010000103031329A
:105070003334353637383961626364656678700079
:10508000303132333435363738394142434445467E
:105090005850000002400000000000A00000000086
:1050A00005400000000000C8000000000C400000A7
:1050B0000000409C00000000194000000020BCBE21
:1050C0000000000034400000BFC91B8E0000000437
:1050D000B5400000504BCFD06607E2CF0100000082
:1050E0006C4100003E8251AADFEEA73401000000AF
:1050F000D9420000DCB5A0E23A301F97FFFFFFFF66
:10510000B4450000FD25A0C8E9A3C14FFFFFFFFF84
:10511000FF3F00000000008000000000FF3F000093
:1051200000000080000000000000000000000000FF
:10513000010203040607080900000000010203043D
:10514000010202030405060708090A0B0C0D0E0FE5
:1051500010100000A0520008000000201000000005
:1051600028010008B052000810000020300900009B
:10517000440100081C00000043000000F8FFFFFF8E
:105180000C0000000E0000000F0000002E000000C8
:105190001001000043000000F8FFFFFF0040404006
:1051A00040404040404041414141414040404040FA
:1051B00040404040404040404040404040050202A6
:1051C0000202020202020202020202020220202065
:1051D00020202020202020020202020202029090C1
:1051E00090909090101010101010101010101010BF
:1051F0001010101010101010020202020202888813
:10520000888888880808080808080808080808081E
:105210000808080808080808020202024000000006
:10522000000000000000000000000000000000007E
:10523000000000000000000000000000000000006E
:10524000000000000000000000000000000000005E
:10525000000000000000000000000000000000004E
:10526000000000000000000000000000000000003E
:10527000000000000000000000000000000000002E
:10528000000000000000000000000000000000001E
:10529000000000000000000000000000000000000E
:1052A0000100000010000000380000000024F4009D
:04000005080000ED02
:00000001FF
